:100000000C9472000C9493000C9493000C94930045
:100010000C9493000C9493000C9493000C94930014
:100020000C9493000C9493000C9493000C94930004
:100030000C9493000C9493000C9493000C949300F4
:100040000C9493000C9493000C9493000C949300E4
:100050000C9493000C9493000C9493000C949300D4
:100060000C9493000C9493000C9493000C949300C4
:100070000C9493000C9493000C9493000C949300B4
:100080000C9493000C9493000C9493000C949300A4
:100090000C9493000C9493000C9493000C94930094
:1000A0000C9493000C9493000C9493000C94930084
:1000B0000C9493000C9493000C9493000C94930074
:1000C0000C9493000C9493000C9493000C94930064
:1000D0000C9493000C9493000C9493000C94930054
:1000E0000C94930011241FBECFEFD1E2DEBFCDBF31
:1000F00000E00CBF12E0A0E0B2E0E8ECFAE000E0C3
:100100000BBF02C007900D92A430B107D9F712E0DF
:10011000A4E0B2E001C01D92AA31B107E1F70E944C
:100120005B010C9462050C940000A1ECB0E01C9201
:100130001092C000E2ECF0E086E080839FE59093AF
:10014000C4001092C50098E19C9380830895E0EC70
:10015000F0E0908195FFFDCF8A3021F48DE080930F
:10016000C60008958093C600089581E08093010140
:100170001092020110BA11BA1092070110920801F0
:100180000895EAE7F0E0108210927B0080E280930D
:100190007C0080E880BF86E880830895883018F06E
:1001A00098E090937B008770806280937C00EAE700
:1001B000F0E0808180648083808184FFFDCF809126
:1001C0007900EAE7F0E090819061908310927B00E3
:1001D00008958FE080930401109205010895CF9354
:1001E000DF9383E00E94CE00C82FD0E0D0931402AA
:1001F000C093130281E00E94CE00809315021092FA
:10020000160282E00E94CE0080931702109218021C
:10021000CE3CD10564F081E090E09093050280939C
:100220000402E5E0F1E080818E7F808309C01092B6
:10023000050210920402E5E0F1E080818160808394
:100240008091170290911802863D910564F081E03B
:1002500090E09093070280930602E5E0F1E0808150
:100260008B7F808309C01092070210920602E5E09E
:10027000F1E0808184608083809115029091160264
:100280008C3B910564F081E090E0909309028093AB
:100290000802E5E0F1E080818D7F808309C0109243
:1002A000090210920802E5E0F1E08081826080831B
:1002B000DF91CF910895CF93DF93CDB7DEB7EC9761
:1002C0000FB6F894DEBF0FBECDBF0E94B5000E94EE
:1002D00095000E94C1000E94E900E1ECF0E08081FD
:1002E0008068808378946E010894C11CD11C04E15D
:1002F00010E00F2EF0E0EF2EF2E0FF2EF02D0F2E8B
:10030000F9E2AF2EBB24F02DAC0EBD1E0F2EF5E191
:100310008F2E9924F02D8C0E9D1E0E94EF0083E0FD
:100320000E94CE008093120281E00E94CE00809352
:10033000100282E00E94CE00809311022DB73EB7DA
:10034000285030400FB6F8943EBF0FBE2DBFEDB71A
:10035000FEB73196ADB7BEB71296DC92CE9211972A
:1003600013830283F582E4828091120286831782CE
:100370000E947E02809112022DB73EB7285F3F4F48
:100380000FB6F8943EBF0FBE2DBF843668F089814A
:100390000E94A7008A810E94A7008B810E94A7006B
:1003A0008FE50E94A7000CC08A3008F492C08981B2
:1003B0000E94A7008A810E94A7008FE50E94A700E3
:1003C0008DB79EB708970FB6F8949EBF0FBE8DBF2E
:1003D000EDB7FEB73196ADB7BEB71296BC92AE92EE
:1003E000119713830283F582E48280911002868341
:1003F00017820E947E022DB73EB7285F3F4F0FB68F
:10040000F8943EBF0FBE2DBF80911202843668F073
:1004100089A50E94A7008AA50E94A7008BA50E941B
:10042000A7008FE50E94A7000EC0809110028A30BD
:1004300008F456C089A50E94A7008AA50E94A700BB
:100440008FE50E94A7008DB79EB708970FB6F89466
:100450009EBF0FBE8DBFEDB7FEB73196ADB7BEB72D
:1004600012969C928E92119713830283F582E482F6
:1004700080911102868317820E947E022DB73EB7BB
:10048000285F3F4F0FB6F8943EBF0FBE2DBF80913F
:100490001202843650F08D890E94A7008E890E9436
:1004A000A7008F890E94A7000AC0809111028A309C
:1004B000F0F08D890E94A7008E890E94A7008FEF1F
:1004C0009FE7A6E181509040A040E1F700C0000006
:1004D00024CF89810E94A7008FE50E94A70070CFDA
:1004E00089A50E94A7008FE50E94A700ACCF8D8947
:1004F0000E94A7008FE50E94A700E1CF0F931F93F2
:10050000CF93DF93CDB7DEB72E970FB6F894DEBF4B
:100510000FBECDBF0E891F89888D998D26E02C8353
:100520001A83098397FF02C080E090E801979E83B9
:100530008D83AE01445E5F4FCE0101966A8D7B8D47
:100540000E94BB024D815E8157FD0AC02F81388514
:10055000421753070CF49A01020F131FF80110827F
:100560002E960FB6F894DEBF0FBECDBFDF91CF91B0
:100570001F910F9108952F923F924F925F926F9229
:100580007F928F929F92AF92BF92CF92DF92EF9223
:10059000FF920F931F93CF93DF93CDB7DEB72D97C5
:1005A0000FB6F894DEBF0FBECDBF3C017D876C87D0
:1005B0005A01FC0117821682838181FFC8C12E0176
:1005C0000894411C511CF3019381EC85FD8593FD3A
:1005D000859193FF8191FD87EC87882309F4B3C14E
:1005E000853241F493FD859193FF8191FD87EC87DE
:1005F000853229F490E0B3010E94D804E4CFFF24AF
:10060000EE2410E01032B0F48B3269F08C3228F412
:10061000803251F0833271F40BC08D3239F0803367
:1006200049F411602CC01260146029C0186027C002
:10063000106125C017FD2EC0282F20532A3098F4B2
:1006400016FF08C08F2D880FF82EFF0CFF0CF80E38
:10065000F20E15C08E2D880FE82EEE0CEE0CE80E73
:10066000E20E10620CC08E3221F416FD6CC11064D3
:1006700006C08C3611F4106802C0883659F4EC8537
:10068000FD8593FD859193FF8191FD87EC878823FC
:1006900009F0B8CF982F9554933018F090529330BA
:1006A00038F424E030E0A20EB31E3FE339830FC0DC
:1006B000833631F0833781F0833509F05AC022C088
:1006C000F5018081898322E030E0A20EB31E21E093
:1006D000C22ED12C420114C092E0292E312C2A0CBA
:1006E0003B1CF5018080918016FF03C06F2D70E0E8
:1006F00002C06FEF7FEFC4010E94CD046C01510175
:100700001F7715C082E0282E312C2A0C3B1CF501E6
:100710008080918016FF03C06F2D70E002C06FEFE4
:100720007FEFC4010E94C2046C011068510113FDE7
:100730001CC006C080E290E0B3010E94D804EA9495
:100740008E2D90E0C816D906A8F30FC0F40117FD4E
:10075000859117FF81914F0190E0B3010E94D80469
:10076000E110EA940894C108D108C114D10471F7CA
:10077000E7C0843611F0893651F5F50117FF07C03F
:1007800080819181A281B38124E030E008C0808122
:100790009181AA2797FDA095BA2F22E030E0A20E02
:1007A000B31E012F0F76B7FF08C0B095A0959095A6
:1007B00081959F4FAF4FBF4F0068BC01CD01A20193
:1007C0002AE030E00E940405D82ED4183FC08537B7
:1007D00021F41F7E2AE030E020C0197F8F36A9F077
:1007E000803720F4883509F0AEC00BC0803721F087
:1007F000883709F0A8C001C0106114FF09C0146057
:1008000007C014FF08C0166006C028E030E005C02D
:1008100020E130E002C020E132E0F50117FF07C01F
:10082000608171818281938144E050E006C06081E3
:10083000718180E090E042E050E0A40EB51EA2017C
:100840000E940405D82ED418012F0F7706FF09C087
:100850000E7FDF1430F404FF06C002FD04C00F7EDB
:1008600002C01D2D01C01F2D802F90E004FF0CC081
:10087000FE01ED0DF11D2081203311F4097E09C028
:1008800002FF06C01E5F05C086789070009709F0D1
:100890001F5F802E992403FD12C000FF0DC0FD2CA8
:1008A0001E1550F4FE0CF11A1E2D06C080E290E0D9
:1008B000B3010E94D8041F5F1E15C0F304C01E15AB
:1008C00010F4E11A01C0EE2484FE0FC080E390E032
:1008D000B3010E94D80482FE1FC081FE03C088E5D8
:1008E00090E010C088E790E00DC0C4018678907059
:1008F000009791F081FC02C080E201C08BE207FD0D
:100900008DE290E0B3010E94D80406C080E390E03D
:10091000B3010E94D804FA94DF14C0F3DA94F20110
:10092000ED0DF11D808190E0B3010E94D804DD201F
:10093000A9F706C080E290E0B3010E94D804EA94CF
:10094000EE20C1F740CEF3018681978102C08FEF80
:100950009FEF2D960FB6F894DEBF0FBECDBFDF918F
:10096000CF911F910F91FF90EF90DF90CF90BF90AC
:10097000AF909F908F907F906F905F904F903F903F
:100980002F900895FC010590615070400110D8F738
:10099000809590958E0F9F1F0895FC0161507040C7
:1009A00001900110D8F7809590958E0F9F1F0895A4
:1009B0000F931F93CF93DF938C01EB018B8181FF0A
:1009C0001BC082FF0DC02E813F818C819D81281725
:1009D000390764F4E881F9810193F983E88306C05B
:1009E000E885F985802F1995009731F48E819F81D4
:1009F00001969F838E8302C00FEF1FEFC801DF9126
:100A0000CF911F910F910895FA01AA27283051F133
:100A1000203181F1E8946F936E7F6E5F7F4F8F4F2F
:100A20009F4FAF4FB1E03ED0B4E03CD0670F781F8E
:100A3000891F9A1FA11D680F791F8A1F911DA11D73
:100A40006A0F711D811D911DA11D20D009F46894AC
:100A50003F912AE0269F11243019305D3193DEF654
:100A6000CF010895462F4770405D4193B3E00FD00A
:100A7000C9F7F6CF462F4F70405D4A3318F0495DF5
:100A800031FD4052419302D0A9F7EACFB4E0A695D8
:100A90009795879577956795BA95C9F700976105FA
:100AA000710508959B01AC010A2E06945795479550
:100AB00037952795BA95C9F7620F731F841F951F45
:080AC000A01D0895F894FFCF7A
:040AC80025640000A1
:00000001FF
