:100000000C9472000C9493000C9493000C94930045
:100010000C9493000C9493000C94BC040C949300E7
:100020000C9493000C9493000C9493000C94930004
:100030000C9493000C9493000C9493000C949300F4
:100040000C9493000C9493000C9493000C949300E4
:100050000C9493000C9493000C9493000C949300D4
:100060000C9493000C9493000C9493000C949300C4
:100070000C9493000C9493000C9493000C949300B4
:100080000C9493000C9493000C9493000C949300A4
:100090000C9493000C9493000C9493000C94930094
:1000A0000C9493000C9493000C9493000C94930084
:1000B0000C9493000C9493000C9493000C94930074
:1000C0000C9493000C9493000C9493000C94930064
:1000D0000C9493000C9493000C9493000C94930054
:1000E0000C94930011241FBECFEFD1E2DEBFCDBF31
:1000F00000E00CBF12E0A0E0B2E0EEECF2E100E0C4
:100100000BBF02C007900D92A430B107D9F712E0DF
:10011000A4E0B2E001C01D92AA36B107E1F70E9447
:10012000E1040C9465090C9400008FE080930401B5
:1001300010920501089581E080930101109202015F
:10014000089581E0809302010895109202010895BC
:1001500081E084B915B808958FEF81B912B8089578
:100160008DE482B983E393E70197F1F712B889E947
:1001700099E5A1E081509040A040E1F7000008958A
:1001800010920502109204028EE882B98091120248
:1001900090911302FC01E25EFD4F4181433031F446
:1001A00086E696E50197F1F7000052C0FC01E25E99
:1001B000FD4F2081223059F0209106023091070234
:1001C0002130310521F0AFEF8F3F9A0729F483E307
:1001D00093E70197F1F73CC021153105A9F44630AA
:1001E00099F080910E0290910F02A0911002B091AF
:1001F0001102883C9105A105B105B4F0A9E9B9EC5B
:100200001197F1F700C024C080910E0290910F0267
:10021000A0911002B0911102883C9105A105B10591
:1002200064F42115310581F4463071F08FEF9FE8B9
:100230000197F1F700C000000BC0AFEFBFE81197C6
:10024000F1F700C0000004C083E393E70197F1F7E2
:1002500012B88CEC9CECA1E081509040A040E1F7FA
:1002600000C00895109205021092040210920E022E
:1002700010920F0210921002109211028DE882B9B2
:10028000E0911202F0911302E25EFD4F8181833012
:1002900031F486E696E50197F1F7000005C0A9E97B
:1002A000B1E81197F1F700C012B88BE59FEEA1E01D
:1002B00081509040A040E1F700C000C00895109226
:1002C00005021092040210920E0210920F02109278
:1002D0001002109211028EE482B9E0911202F091A4
:1002E0001302E25EFD4F8181833031F486E696E5AC
:1002F0000197F1F7000005C0A9E9B1E81197F1F7FE
:1003000000C012B88BE59FEEA1E081509040A04064
:10031000E1F700C000C008958091040290910502A9
:10032000019690930502809304028EE082B9809139
:10033000120290911302FC01E25EFD4F41814330B5
:1003400031F486E696E50197F1F7000053C0FC0111
:10035000E25EFD4F2081223059F02091060230915B
:1003600007022130310521F0AFEF8F3F9A0729F4C2
:1003700083E393E70197F1F73DC021153105A9F417
:10038000463099F080910E0290910F02A0911002D8
:10039000B0911102883C9105A105B105B4F0A9E91D
:1003A000B9EC1197F1F700C025C080910E02909131
:1003B0000F02A0911002B0911102883C9105A10595
:1003C000B10564F42115310579F4463069F08FEFF9
:1003D0009FE80197F1F700C000000CC0A9E9B9EC53
:1003E0001197F1F700C006C08FEF9FE80197F1F772
:1003F00000C0000012B88BE59FEEA1E08150904054
:10040000A040E1F700C000C00895809104029091DF
:100410000502019690930502809304028CE882B94C
:100420008091120290911302FC01E25EFD4F418126
:10043000433031F486E696E50197F1F7000053C0AA
:10044000FC01E25EFD4F2081223059F0209106022E
:10045000309107022130310521F0AFEF8F3F9A072D
:1004600029F483E393E70197F1F73DC021153105A6
:10047000A9F4463099F080910E0290910F02A0915C
:100480001002B0911102883C9105A105B105B4F0AC
:10049000A9E9B9EC1197F1F700C025C080910E02CF
:1004A00090910F02A0911002B0911102883C910529
:1004B000A105B10564F42115310579F4463069F0E0
:1004C0008FEF9FE80197F1F700C000000CC0A9E989
:1004D000B9EC1197F1F700C006C08FEF9FE80197C4
:1004E000F1F700C0000012B88BE59FEEA1E081504B
:1004F0009040A040E1F700C000C0089510920502AE
:10050000109204028CE082B90895A1ECB0E01C9234
:100510001092C000E2ECF0E086E080839FE59093CB
:10052000C4001092C50098E19C9380830895E0EC8C
:10053000F0E0908195FFFDCF8A3021F48DE080932B
:10054000C60008958093C600089510BA11BA10929B
:100550000701109208010895EAE7F0E01082109276
:100560007B0080E280937C0080E880BF86E8808307
:100570000895883018F098E090937B00877080622F
:1005800080937C00EAE7F0E0808180648083808152
:1005900084FFFDCF80917900EAE7F0E090819061DF
:1005A000908310927B000895CF93DF9383E00E94A5
:1005B000B902C82FD0E0D0931502C093140281E095
:1005C0000E94B902809316021092170282E00E94E4
:1005D000B9028093180210921902CE3CD10564F042
:1005E00081E090E09093650280936402E5E0F1E0A1
:1005F00080818E7F808309C0109265021092640210
:10060000E5E0F1E080818160808380911802909123
:100610001902863D910564F081E090E090936702B5
:1006200080936602E5E0F1E080818B7F808309C0E2
:100630001092670210926602E5E0F1E0808184602A
:10064000808380911602909117028C3B910564F093
:1006500081E090E09093690280936802E5E0F1E028
:1006600080818D7F808309C0109269021092680298
:10067000E5E0F1E0808182608083809106029091C4
:1006800007028130910551F410920902109208027C
:10069000E5E0F1E080818860808305C0E5E0F1E07D
:1006A0008081877F8083DF91CF910895E0ECF0E037
:1006B00080818823ECF78091C6000895E0911202B2
:1006C000F0911302E25EFD4F8181833049F48EE8A0
:1006D00082B98FEF9FE80197F1F700C0000012B8D0
:1006E000E0911202F0911302E25EFD4F80818230B0
:1006F00041F08091640290916502009709F44CC02A
:1007000055C08091660290916702009751F40E9453
:1007100032010E94D4028091660290916702009794
:10072000B1F30E94B0000E94B0000E94B0000E948D
:10073000B0000E94B0000E94B00004C00E94D40229
:100740000E94320180916602909167020097B1F792
:100750008091680290916902009781F70E94D4020B
:100760000E94320180916802909169020097B1F372
:10077000E0911202F0911302E25EFD4F818183301D
:1007800009F44DC08DE482B98FEF9FE80197F1F72E
:1007900000C0000012B808950E945F010E94D402B8
:1007A00080916402909165020097B1F30E94B000BD
:1007B0000E94B0000E94B0000E94B0000E94B000F1
:1007C0000E94B00004C00E94D4020E945F01809188
:1007D0006402909165020097B1F780916802909150
:1007E0006902009781F70E94D4020E945F01809104
:1007F0006802909169020097B1F3E0911202F091C2
:100800001302E25EFD4F8181833049F08EE482B9AC
:100810008FEF9FE80197F1F700C0000012B808952C
:10082000CF92DF92EF92FF92CF93DF93EC01809112
:100830001A0290911B02019690931B0280931A0258
:1008400080FF02C00E94A10010920E0210920F02BF
:1008500010921002109211026E01EE24D7FCE09467
:10086000FE2C1C141D041E041F047CF40E94C000F6
:1008700080910E0290910F02A0911002B09111028E
:100880008C159D05AE05BF058CF380911A0280FD85
:1008900002C00E94A5008DE40E9497028FEF9FEF97
:1008A000A9E581509040A040E1F700C000001092FF
:1008B0000E0210920F021092100210921102E0919B
:1008C0001202F0911302E25EFD4F8181823061F4E9
:1008D00069966E01EE24D7FCE094FE2C1C141D04D6
:1008E0001E041F047CF02DC0863091F3A3966E0188
:1008F000EE24D7FCE094FE2C1C141D041E041F04DF
:100900008CF01FC00E94B00080910E0290910F02E7
:10091000A0911002B09111028C159D05AE05BF0586
:100920008CF30FC00E94B00080910E0290910F02D4
:10093000A0911002B09111028C159D05AE05BF0566
:100940008CF310920E0210920F021092100210926D
:100950001102DF91CF91FF90EF90DF90CF9008953B
:100960008FEC84B90895F894EAE6F0E0808188601D
:100970008083ED9A789408951F920F920FB60F928C
:1009800011248F939F93AF93BF9380910E02909108
:100990000F02A0911002B09111020196A11DB11D8C
:1009A00080930E0290930F02A0931002B093110255
:1009B000BF91AF919F918F910F900FBE0F901F909D
:1009C00018959F92AF92BF92CF92DF92EF92FF92D3
:1009D0000F931F93CF93DF930E9495000E9485028F
:1009E0000E94AC020E94A5020E949B000E94AC00E3
:1009F0000E94A8000E94B0040E94B30482E50E94F5
:100A00009702C6ECD0E00EE112E0FF246894F1F802
:100A1000AA246894A2F8BB24B3940F2EF3E0CF2E3F
:100A2000F02D0F2EF6E0DF2EF02D0F2EF5E0EF2E3D
:100A3000F02D0E9456038881813471F48091120256
:100A400090911302F801E80FF91FF082019690933C
:100A5000130280931202EDCF8881833471F4809168
:100A6000120290911302F801E80FF91FE08201963B
:100A70009093130280931202DCCF8881833571F446
:100A80008091120290911302F801E80FF91FD082B1
:100A900001969093130280931202CBCF88818D34FC
:100AA00071F48091120290911302F801E80FF91F7E
:100AB000C08201969093130280931202BACF88816C
:100AC0008C3471F48091120290911302F801E80FB6
:100AD000F91F108201969093130280931202A9CFFE
:100AE0008881823571F48091120290911302F8018D
:100AF000E80FF91FB08201969093130280931202BF
:100B000098CF8881883539F4E0911202F091130270
:100B1000E00FF11FA082E0911202F0911302E00FAA
:100B2000F11F8081843009F084CF8FEF9FEF909385
:100B300013028093120280911E02863051F41092AB
:100B400013021092120281E090E0909307028093CA
:100B5000060201E010E0CEE1D2E00F2EF2E7EF2E28
:100B6000F02D0F2EFEE4BF2EF02D0F2EFCE6AF2E43
:100B7000F02D0F2EFDE89F2EF02D0F2EFDE4FF2E01
:100B8000F02D0F2EFAEFCF2EDD24F02D109209025A
:100B9000109208020E94D402809164029091650232
:100BA000009709F407C1809168029091690200974B
:100BB00009F4AFC08091660290916702009709F432
:100BC0006CC380911202909113022FEF8F3F920716
:100BD000C9F40E94D4020E94C000809164029091E6
:100BE0006502009709F4E6C080916802909169025D
:100BF000009709F48EC08091660290916702009779
:100C000041F74BC30E94D4020E94C000809164024D
:100C1000909165020097B1F7809168029091690206
:100C2000009781F78091660290916702009751F7D3
:100C3000C1C0109309020093080280916402909150
:100C40006502009791F18091680290916902009786
:100C500061F18091660290916702009731F5809171
:100C60000402909105028A3F910508F07FC10E941D
:100C7000D4020E940502809164029091650200975F
:100C8000A1F08091680290916902009771F08091C3
:100C9000660290916702009741F48091040290915E
:100CA00005028A3F910518F361C180910402909179
:100CB00005028A3F9105F8F059C10E94D4020E94B2
:100CC000C0008091640290916502009761F080916C
:100CD000680290916902009731F0809166029091CC
:100CE0006702009751F3F2B88FEF9FE80197F1F791
:100CF00000C0000012B880916402909165020097D4
:100D000009F458C08091680290916902009709F037
:100D10003DCF8091660290916702009709F4C5C2A9
:100D20000E94D4020E94C0008091640290916502EA
:100D30000097B1F78091680290916902009781F75E
:100D40008091660290916702009751F733C08091BD
:100D50000402909105028436910508F007C10E94B3
:100D6000D4020E940502209164023091650221158F
:100D70003105A1F08091680290916902009771F4A9
:100D80008091660290916702009741F4809104027D
:100D9000909105028436910510F3E8C08091040219
:100DA000909105028436910508F0E0C021153105C7
:100DB00009F0ECCE8091680290916902009709F4E5
:100DC0008DC08091660290916702009709F451C02E
:100DD00010930902009308028091640290916502C9
:100DE000009791F58091680290916902009761F1F6
:100DF0008091660290916702009731F18091040220
:100E0000909105028436910508F0B0C00E94D4028A
:100E10000E948C0180916402909165020097A1F478
:100E20008091680290916902009771F0809166024A
:100E300090916702009741F0809104029091050221
:100E40008436910518F392C08091040290910502B6
:100E50008436910508F08AC0809164029091650201
:100E6000009709F093CE80916802909169020097F3
:100E7000A9F18091660290916702009709F086CEF1
:100E80000E94D4020E94C000809164029091650289
:100E9000009761F48091680290916902009731F0A7
:100EA0008091660290916702009751F380910C0245
:100EB00090910D02009721F410930D0200930C0203
:100EC0008091640290916502009709F05FCE809155
:100ED000680290916902009709F058CE80916602ED
:100EE000909167020097C1F18091040290910502F0
:100EF0008A3F9105D8F50E94D4020E948C0120916E
:100F000064023091650221153105A1F480916802D7
:100F100090916902009771F4809166029091670246
:100F2000009741F080910402909105028A3F91055B
:100F300010F31CC080910402909105028A3F910534
:100F4000A8F42115310509F021CE80916802909115
:100F50006902009709F01ACE8091660290916702AB
:100F6000009709F48EC112CE0E94D40280910A0229
:100F700090910B02009709F091C020911C023091D2
:100F80001D02C901AA2797FDA095BA2F40910E0214
:100F900050910F0260911002709111024817590789
:100FA0006A077B0754F4E0911202F0911302EC0FF0
:100FB000FD1F8081823009F071C02115310521F4B7
:100FC000D0921D02C0921C02E0911202F091130215
:100FD000CF01019690931302809312028C0F9D1FF4
:100FE000DC018C91863089F4E05EFD4FCF018E519B
:100FF000924021912630D1F39093130280931202F4
:10100000109307020093060204C010920702109288
:101010000602F2B88091120290911302FE01E80FCD
:10102000F91F2181233019F08081833039F48FEF4B
:1010300097E40197F1F700C0000006C0AFEFBFE8EA
:101040001197F1F700C0000012B880911202909140
:101050001302FE01E80FF91F2181233019F080816E
:10106000833041F486E696E4A4E081509040A040AD
:10107000E1F708C08CEC9CE0A4E081509040A040D7
:10108000E1F700C010920E0210920F0210921002AF
:101090001092110210930B0200930A022091120287
:1010A00030911302809102029091030228173907B0
:1010B00009F4DBC0309303022093020210930B0269
:1010C00000930A02FE01E20FF31F8081823009F4CF
:1010D00072C0833030F48823D9F0813009F0C5C064
:1010E0000AC0843009F4A9C0843008F472C0853085
:1010F00009F0BBC067C080916602909167020097BB
:10110000F1F48091680290916902009741F017C054
:101110008091640290916502009751F133C00E9462
:10112000D4020E945F01809166029091670200974D
:1011300031F48091680290916902009781F3A09246
:10114000000292B8AFEFBFE81197F1F700C00000BE
:1011500012B80E947E0210920E0210920F0210929C
:1011600010021092110210920D0210920C027DC01A
:101170000E94D4020E943201809164029091650223
:101180000097B1F3E0920002B2B8EFEFFFE83197B9
:10119000F1F700C0000012B80E947E0210920E0209
:1011A00010920F02109210021092110210920D0272
:1011B00010920C025AC00E945E0310920D0210920F
:1011C0000C0253C00E945E0310920D0210920C029A
:1011D0004CC0C901019690931302809312028C0FA8
:1011E0009D1FDC018C91863091F4F901E05EFD4F8A
:1011F000CF018E51924021912630D1F3909313026A
:1012000080931202109307020093060204C010920A
:101210000702109206028FEF9FE7A4E081509040F2
:10122000A040E1F700C0000010920D0210920C02E5
:1012300086E990E00E94100418C081E085B98FEF24
:101240009FEFA0EE81509040A040E1F700C0000069
:1012500015B8DF91CF911F910F91FF90EF90DF9024
:10126000CF90BF90AF909F9008958091640290912D
:101270006502009769F48091680290916902009775
:1012800039F48091660290916702009709F46CCE60
:1012900010920B0210920A0279CC80916602909112
:1012A0006702009709F4C5CC08C08091660290914E
:1012B0006702009709F44BCD69CC8091660290914A
:0E12C0006702009709F4F9CC61CCF894FFCFD7
:0412CE006C41FFFF71
:00000001FF
